:100000000C9434000C943E000C943E000C943E0082
:100010000C943E000C943E000C943E000C943E0068
:100020000C943E000C943E000C943E000C943E0058
:100030000C943E000C943E000C943E000C943E0048
:100040000C943E000C943E000C943E000C943E0038
:100050000C943E000C943E000C943E000C943E0028
:100060000C943E000C943E0011241FBECFEFD8E04C
:10007000DEBFCDBF0E9440000C945A000C940000DB
:100080008AB18F618AB987B117B8EAE7F0E087E8EB
:10009000808381EE80937C00808188608083789467
:1000A0008081806480838081809179008BB980E039
:0800B00090E00895F894FFCFE1
:00000001FF
