:100000000C9434000C943E000C943E000C943E0082
:100010000C943E000C943E000C943E000C943E0068
:100020000C943E000C943E000C943E000C943E0058
:100030000C943E000C943E000C943E000C943E0048
:100040000C943E000C943E000C943E000C943E0038
:100050000C943E000C943E000C943E000C943E0028
:100060000C943E000C943E0011241FBECFEFD8E04C
:10007000DEBFCDBF0E9440000C9494000C940000A1
:1000800084B18F6084B961E070E080E090E045B1B8
:100090009B01082E01C0220F0A94EAF7342F322B5D
:1000A00035B94FEF56E7E1E041505040E040E1F70D
:1000B00000C0000035B12095232325B92FEF36E786
:1000C00041E0215030404040E1F700C0000001967F
:1000D00084309105E1F62A9A5FEF86E791E051506E
:1000E00080409040E1F700C000002A98EFEF26E73B
:1000F00031E0E15020403040E1F700C00000299A93
:100100004FEF56E781E0415050408040E1F700C09A
:10011000000029989FEFE6E721E09150E040204061
:0C012000E1F700C00000B1CFF894FFCF61
:00000001FF
