:100000000C9434000C9440000C943E000C943E0080
:100010000C943E000C943E000C943E000C943E0068
:100020000C943E000C943E000C943E000C943E0058
:100030000C943E000C943E000C943E000C943E0048
:100040000C943E000C943E000C943E000C943E0038
:100050000C943E000C943E000C943E000C943E0028
:100060000C943E000C943E0011241FBECFEFD8E04C
:10007000DEBFCDBF0E944B000C9459000C940000D1
:100080001F920F920FB60F9211242D9A0F900FBE50
:100090000F901F9018955298259AE89A80916900C0
:1000A000816080936900809169008260809369001B
:0600B000FFCFF894FFCF22
:00000001FF
